:100000000C9434000C9451000C9451000C94510049
:100010000C9451000C9451000C9451000C9451001C
:100020000C9451000C9451000C9451000C9451000C
:100030000C9451000C9451000C9451000C945100FC
:100040000C94BE000C9451000C9423020C94960264
:100050000C94D8020C9451000C9451000C94510053
:100060000C9451000C94510011241FBECFEFD8E026
:10007000DEBFCDBF11E0A0E0B1E0E8E0F3E102C0F7
:1000800005900D92A830B107D9F722E0A8E0B1E0C1
:1000900001C01D92A535B207E1F70E94D4070C9468
:1000A00082090C94000085B5826085BDEEE6F0E023
:1000B0008081816080830895A1E0B0E0E2E6F0E015
:1000C0000C945B0989838981498129816BB130E175
:1000D000839FC00111248078992750E0440F551F59
:1000E00040725527842B30E0220F331F20743327B2
:1000F000822B862B8BB9898180958983898149815F
:1001000029816BB130E1839FC00111248078992748
:1001100050E0440F551F40725527842B952B30E03B
:10012000220F331F20743327822B932B80959095B9
:1001300086238BB92196E2E00C94770946B129B168
:1001400089B154E0259F900111242074332750E198
:10015000859FC001112480789927282B842F8F73C5
:10016000822B08951AB817B81BB818B8589A8AB1D4
:10017000846E8AB984B1836084B908951F920F9206
:100180000FB60F9211242F933F934F935F936F936A
:100190007F938F939F93AF93BF93EF93FF930E94AF
:1001A000DE01FF91EF91BF91AF919F918F917F9170
:1001B0006F915F914F913F912F910F900FBE0F90D4
:1001C0001F901895A1E0B0E0E8EEF0E00C945B0918
:1001D0000E94540183FF23C0E0915601E150E031B9
:1001E00008F04FC0F0E0E950FF4F0C9445090701BB
:1001F00013011D01260134012D014101410141017D
:100200004101410141014101410134012D0148E019
:1002100050E070E060E088E091E00E94E503219604
:10022000E2E00C9477090E949E00898348E050E048
:1002300070E060E0CE010196F0CF4AE050E070E05F
:1002400060E081E191E00E946403E9CF44E050E086
:1002500070E060E08DE491E0F6CF44E150E070E0C2
:1002600060E085E291E0EFCF48E050E070E060E0D0
:1002700088E091E00E94E503809108010E945C0003
:10028000CECF81E00E942B03CACFA89588E19CE0E5
:100290000FB6F894A895809360000FBE909360000D
:1002A00081E090E00E94820980910E010895809182
:1002B0000A01089580930A010895CF93DF936F5F39
:1002C00050E040E02FEF3FEF70E0FC01461757078A
:1002D000CCF0E60FF71FA0816F5F7F4FEC01C60FD8
:1002E000D71F832F9927A9015527A417150621F495
:1002F000488148171906D9F02083888380E0DF9170
:10030000CF910895E40FF51FE0812E27E8E0D90191
:10031000A170BB2736952795AB2B21F0F1E02F2755
:10032000F0EA3F27E15099F74F5F5F4FCECF81E072
:10033000E6CF30E020E0241708F00895DC01A20F9A
:10034000B31FFB01E20FF31F5C9150832F5F3F4F00
:10035000F2CFD9019B01E3E036952795EA95E1F7C5
:10036000820F931FFC013081FD0183E0F695E79534
:100370008A95E1F7E40FF51FA770BB2781E090E0B5
:1003800001C0880FAA95EAF7232F30E0677077271E
:1003900002C0359527956A95E2F7908120FF03C04A
:1003A000892B8083089580958923FBCF80E28093F9
:1003B0000E0110920D0110920C01089580910E0112
:1003C00085FF36C080910C0190910D0101969093AC
:1003D0000D0180930C0180910E0181FF2AC0809154
:1003E0000C0190910D01079731F480910E0180640A
:1003F00080930E011DC080910C0190910D014297D8
:10040000B9F488E080930E019091550180910A0122
:10041000981719F00E94D601089560910F0170910C
:100420001001635085E591E00E945D01882391F3FE
:10043000089580910C0190910D014097C9F780912A
:100440000E018160D5CF1F920F920FB60F9211242B
:100450002F933F934F935F936F937F938F939F93CC
:10046000AF93BF93EF93FF938091C60010920D015D
:1004700010920C0190910E0193FD3CC090910E01E1
:1004800094FD38C090910E0192FD34C090910E0100
:1004900091FF30C090910E0190FD2CC020910F0172
:1004A000309110012F3F3105A1F098F00E94D60144
:1004B000FF91EF91BF91AF919F918F917F916F913C
:1004C0005F914F913F912F910F900FBE0F901F9012
:1004D0001895E0910F01F0911001EB5AFE4F8083C7
:1004E00080910F01909110010196909310018093DB
:1004F0000F01DECF90910E0193FDDACF90910E01A6
:1005000094FDD6CF90910E0192FDD2CF90910E0125
:1005100091FDCECF90910E0190FFCACF80935501EF
:1005200082E280930E0181E090E0DFCF1F920F9274
:100530000FB60F9211242F933F938F939F93EF93B6
:10054000FF9380910E018F7E80930E0180910E01AA
:10055000846080930E01E0910F01F0911001EB5A3D
:10056000FE4F80818093C60080910F019091100111
:1005700001969093100180930F01809107012091C3
:100580000F013091100190E001968217930729F432
:100590008091C1008F7D8093C100FF91EF919F9169
:1005A0008F913F912F910F900FBE0F901F90189534
:1005B0001F920F920FB60F9211242F933F934F93D8
:1005C0005F936F937F938F939F93AF93BF93EF93BB
:1005D000FF930E94D601FF91EF91BF91AF919F9140
:1005E0008F917F916F915F914F913F912F910F90DC
:1005F0000FBE0F901F9018951092C50080E1809358
:10060000C40082E08093C00086E08093C20088ED41
:100610008093C10080E280930E01089592E0980FCC
:1006200090930701682F85E591E00E945D0180911C
:100630000E01806180930E011092100110920F0143
:10064000E1ECF0E080818062808380910E01877F01
:1006500080930E010895E5E5F1E091819068918322
:10066000828382E00E940E030895E5E5F1E0858132
:1006700094810895E5E5F1E0838192810895DC019C
:10068000FB0190E0941301C008952D913C911197C6
:1006900030832D913D9121839F5F3296F3CFFC01F2
:1006A000DB0180E0841301C0089590815181292FDE
:1006B00030E0322F2227250F311D11963C932E93C7
:1006C00012968F5F3296EECFB0E0A0E0EAE6F3E05C
:1006D0000C945509EC017B016A010E9435038C01E1
:1006E0000E943A0320915601263011F401E010E0F7
:1006F0008E159F0580F1CE0CDF1C9801280F391F45
:10070000C216D30640F120915601233021F02091EA
:100710005601243029F59801220F331F2C3F310553
:10072000D0F4902F990F909357018E1990E0880F75
:10073000991F402F68E571E08C0F9D1F0E943F03B9
:10074000809157018E5F0E940E0381E0CDB7DEB726
:10075000E8E00C94710983E00E942B0380E0F6CF5F
:1007600020915601203111F540915B019801220F33
:10077000331F4217130678F320910F0130911001B7
:1007800040915B01295031094217130609F018F70F
:100790008E19682F70E0660F771F6C0F7D1F402F3A
:1007A0008CE591E00E944F0385E0CDCF209156016A
:1007B0002630A1F68E1990E0880F991FBE01680FB0
:1007C000791F41E089E591E0EDCFB0E0A0E0EBEEEC
:1007D000F3E00C9455096C018B017A010E943503FA
:1007E000EC010E943A0320915601253011F4C1E03A
:1007F000D0E08017910708F466C0E00EF11E9E015C
:10080000280F391FE216F30608F45DC02091560147
:10081000223021F0209156012130E1F5C93D27E039
:10082000D20708F050C09E0143E0369527954A95BF
:10083000E1F720935701AE0147705527452B49F04A
:10084000285A3E4FF9011082209157012F5F2093C3
:100850005701F12CE12C9C01201B310B8901CE1595
:10086000DF0559F4809157018E5F0E940E0381E0ED
:10087000CDB7DEB7E8E00C947109B8016E0D7F1DAD
:10088000970148E551E0C6010E94A9013FEFE31A34
:10089000F30AE5CF209156012F3091F520915B01AD
:1008A00048E0249F900111242C173D0760F020910F
:1008B0000F013091100140915B012950310942171D
:1008C0001306B9F0B0F083E00E942B0380E0D0CF94
:1008D00098012E0D3F1DA601B7018CE591E00E9405
:1008E000A9018FEFE81AF80ACE15DF0589F785E030
:1008F000BCCFF12CE12CFC01E01BF10B8F01F4CFFC
:1009000020915601253011F79C01201B310BA601C7
:1009100070E060E089E591E00E94A901E8CF1092C3
:10092000B9008CE58093B800089584EA8093BC00F8
:1009300021E030E08091BC0087FD03C02115310526
:1009400051F48091B900232B49F0887F883039F029
:10095000803121F408952F5F3F4FECCF80E0089560
:1009600084E98093BC0008958093BB0084E8809361
:10097000BC0021E030E08091BC0087FD03C0211560
:10098000310561F48091B900232B59F0887F8831BB
:1009900049F0883239F0803421F408952F5F3F4FB9
:1009A000EACF80E00895FC0184EC611101C084E885
:1009B0008093BC0021E030E08091BC0087FD03C043
:1009C0002115310539F48091B900232B31F41082BF
:1009D00080E00BC02F5F3F4FEFCF887F9091BB002F
:1009E0009083803511F0883599F70895EF92FF9242
:1009F0000F931F93CF93DF93E82E162FF72E042F1C
:100A0000E9010E949504882389F18E2D880F0E94A8
:100A1000B40421E030E0811102C030E020E0232B5B
:100A200029F18F2D0E94B40421E030E0811102C031
:100A300030E020E0232BD1F0812F0E94B40491E01C
:100A4000811101C090E0892F94E0F92E10E00D5F34
:100A50001F4F2F2D30E00217130754F494E99093A1
:100A6000BC00CDB7DEB7E6E00C94730980E0ECCFB4
:100A7000882379F0220F331FFE01E20FF31F8081DC
:100A80000E94B40491E0811101C090E0892FF39499
:100A9000E0CF80E0FCCFA1E0B0E0E1E5F5E00C9430
:100AA0005809182F062FF72E19820E9495048823C3
:100AB000F1F1812F880F0E94B40421E030E0811110
:100AC00002C030E020E0232B91F18F2D0E94B4046E
:100AD00021E030E0811102C030E020E0232B39F129
:100AE000802F0E94B40421E030E0811102C030E088
:100AF00020E0232BE1F00E94950421E030E08111F9
:100B000002C030E020E0232B91F0812F880F81601C
:100B10000E94B40421E030E0811102C030E020E006
:100B2000232B29F060E0CE0101960E94D30484E9D2
:100B30008093BC0089812196E5E00C947409A1E0C2
:100B4000B0E0E5EAF5E00C945809182F062FF72ECF
:100B500019820E949504882309F441C0812F880FCF
:100B60000E94B40421E030E0811102C030E020E0B6
:100B7000232BA9F18F2D0E94B40421E030E08111D4
:100B800002C030E020E0232B51F1802F0E94B404FA
:100B900021E030E0811102C030E020E0232BF9F0A9
:100BA0000E94950421E030E0811102C030E020E095
:100BB000232BA9F0812F880F81600E94B40421E0CB
:100BC00030E0811102C030E020E0232B41F061E0F1
:100BD000CE0101960E94D30491E0811101C090E002
:100BE000098110E0102F0027992329F060E0CE0141
:100BF00001960E94D304898194E99093BC009801E6
:100C0000282BC9012196E5E00C9474090F931F93DA
:100C1000CF93DF93082FD62F172FC42F0E94950450
:100C20008823B1F1802F880F0E94B40421E030E0C6
:100C3000811102C030E020E0232B51F1812F0E946E
:100C4000B40421E030E0811102C030E020E0232B29
:100C5000F9F08D2F0E94B40421E030E0811102C030
:100C600030E020E0232BA1F08C2F0E94B40491E00F
:100C7000811101C090E0892F94E99093BC00E0E4D9
:100C8000FCE93197F1F7DF91CF911F910F91089512
:100C900080E0F2CFFF920F931F93CF93DF93F82E54
:100CA000162F072FEA010E949504882309F441C0FA
:100CB0008F2D880F0E94B40421E030E0811102C022
:100CC00030E020E0232BA9F1802F0E94B40421E022
:100CD00030E0811102C030E020E0232B51F1812F60
:100CE0000E94B40421E030E0811102C030E020E035
:100CF000232BF9F08D2F0E94B40421E030E0811104
:100D000002C030E020E0232BA1F08C2F0E94B4041D
:100D100091E0811101C090E0892F94E99093BC008B
:100D2000E0E4FCE93197F1F7CDB7DEB7E5E00C94EC
:100D3000740980E0F2CF1F93CF93DF93182FD62F43
:100D4000C42F0E949504882331F1812F880F0E94BF
:100D5000B40421E030E0811102C030E020E0232B18
:100D6000D1F08D2F0E94B40421E030E0811102C047
:100D700030E020E0232B79F08C2F0E94B40491E026
:100D8000811101C090E0892F94E99093BC00DF911C
:100D9000CF911F91089580E0F7CF0F931F93CF93CA
:100DA000DF93082F162FEA010E949504882391F102
:100DB000802F880F0E94B40421E030E0811102C02E
:100DC00030E020E0232B31F1812F0E94B40421E098
:100DD00030E0811102C030E020E0232BD9F08D2FCC
:100DE0000E94B40421E030E0811102C030E020E034
:100DF000232B81F08C2F0E94B40491E0811101C05B
:100E000090E0892F94E99093BC00DF91CF911F91DE
:100E10000F91089580E0F6CF0F931F93CF93DF9348
:100E2000C82FD62F8A010E949504882309F43FC059
:100E30008C2F880F0E94B40421E030E0811102C0A1
:100E400030E020E0232B99F18D2F0E94B40421E0A3
:100E500030E0811102C030E020E0232B41F10E94FC
:100E6000950421E030E0811102C030E020E0232B26
:100E7000F1F08C2F880F81600E94B40421E030E0F3
:100E8000811102C030E020E0232B89F060E0C8012E
:100E90000E94D30491E0811101C090E0892F94E970
:100EA0009093BC00DF91CF911F910F91089580E046
:100EB000F6CFA1E0B0E0EFE5F7E00C945609F82E8C
:100EC000D62E8A01E22E19820E9495048823B1F160
:100ED0008F2D880F0E94B40421E030E0811102C000
:100EE00030E020E0232B51F18D2D0E94B40421E04D
:100EF00030E0811102C030E020E0232BF9F00E94A5
:100F0000950421E030E0811102C030E020E0232B85
:100F1000A9F08F2D880F81600E94B40421E030E099
:100F2000811102C030E020E0232B41F061E0CE01CE
:100F300001960E94D30491E0811101C090E0892FB5
:100F40002981422F50E0F801E1101FC01082218357
:100F5000992309F160E0CE0101960E94D30491E04B
:100F6000811101C090E0892F94E99093BC00F1E0D9
:100F7000EF1214C09981F80120813181292B31832E
:100F800020832196E7E00C947209518340839111EC
:100F9000E1CF80E0E9CF94E99093BC009981F8011A
:100FA00020813181392BEBCFA3E0B0E0EAEDF7E00F
:100FB0000C944B090E94B200789486E00E945A017A
:100FC0000E94FC0288E19FE00FB6F894A8958093F8
:100FD00060000FBE909360000E9453000E948F0437
:100FE00081E090E090931A018093190180910201B1
:100FF0004FEF6AE170E00E940606289A299810E0F7
:10100000A8950E94E20080912501909126018330ED
:10101000910509F470C050F48130910589F0029770
:1010200061F11092260110922501EACF85309105D9
:1010300009F423C108F41AC1069799F70E944501E3
:101040004091290150912A0180910201609105018E
:101050007091060125E231E00E94F60420912901F9
:1010600030912A018091050190910601820F931F12
:101070009093060180930501D4CF409129015091AE
:101080002A018091020160E270E00E940606409110
:101090002B0150912C018091020161E270E00E94CD
:1010A000060640912D0150912E01809102016CE1C4
:1010B00070E00E94060640912F015091300180910E
:1010C00002016DE170E00E940606409131015091ED
:1010D0003201809102016EE170E00E9406064091AB
:1010E000330150913401809102016FE170E00E9460
:1010F000060610E096CF2091020129832DB63EB658
:1011000080900301909004018091020160E270E000
:101110000E949F057C018DB79EB794500FB6F8943E
:101120009EBF0FBE8DBF01966C01FC0140E050E0F8
:10113000BA01DB01CA0128E000E2402E03E8502E8C
:1011400008EB602E0DEE702E80FF03C0412C512C59
:101150003201B695A7959795879584259525A6255F
:10116000B725215049F7B09581939193A193B193FD
:101170004F5F5F4F6F4F7F4F411591E059076105FA
:101180007105B9F6412C512C320110E000E0C70185
:1011900001969B838A83570191E0A91AB1088A813D
:1011A0009B810817190750F16091000170910101AE
:1011B00089810E949F05B0E0A0E07C01DD24CC2461
:1011C00060910001709101016E5F7F4F89810E94E3
:1011D0009F050FB6F8943EBE0FBE2DBEB0E0A0E056
:1011E0008C299D29AE29BF2911E084159505A605F6
:1011F000B70509F010E080E390E03ACF0E151F0527
:1012000098F680910201B401600F711F0E949F0542
:101210000A151B0509F48827E92FE42524E0E29F3D
:10122000F0011124EC0DFD1D452C562C672C772464
:101230004081518162817381442655266626772636
:101240000E5F1F4F842594E0899FF0011124EC0D5F
:10125000FD1D452C562C672C772480819181A2811D
:10126000B381482659266A267B2699CF812F90E0A4
:1012700090931C0180931B01D4CE8091020141E127
:101280006AE170E00E940606CCCEEE0FFF1F0590CB
:10129000F491E02D09942F923F924F925F926F92BA
:1012A0007F928F929F92AF92BF92CF92DF92EF92F6
:1012B000FF920F931F93CF93DF93CDB7DEB7CA1B77
:1012C000DB0B0FB6F894DEBF0FBECDBF09942A88A2
:1012D000398848885F846E847D848C849B84AA844A
:1012E000B984C884DF80EE80FD800C811B81AA81D7
:1012F000B981CE0FD11D0FB6F894DEBF0FBECDBFA2
:08130000ED010895F894FFCF00
:081308001C005030003000070A
:1078000033C0000053C0000051C000004FC0000052
:107810004DC000004BC0000049C0000047C0000040
:1078200045C0000043C0000041C000003FC0000050
:107830003DC000003BC0000039C0000037C0000060
:1078400035C0000033C0000031C000002FC0000070
:107850002DC000002BC0000029C0000027C0000080
:1078600025C0000023C0000011241FBECFEFD8E0C8
:10787000DEBFCDBF84B78093080114BE0FB6F89465
:10788000A8958091600088618093600010926000EC
:107890000FBE11E0A0E0B1E0EEE3FFE702C005900B
:1078A0000D92A830B107D9F7E0D147C3A9CF23E0A3
:1078B000FC0120935700E89507B600FCFDCFDB01E3
:1078C00060E071E0AC014A1B5B0B8C91FA01EA0F9E
:1078D000FB1F11969C911197292F30E0322F222700
:1078E000280F311D090170935700E89511246E5F30
:1078F0001296603851F7089525E0FC012093570057
:10790000E89507B600FCFDCF81E180935700E8952C
:1079100008951092B9008CE58093B800089584EA28
:107920008093BC0021E030E08091BC0087FD03C063
:107930002115310551F48091B900232B49F0887F3E
:10794000883039F0803121F408952F5F3F4FECCF1C
:1079500080E0089584E98093BC0008958093BB0083
:1079600084E88093BC0021E030E08091BC0087FD7A
:1079700003C02115310561F48091B900232B59F022
:10798000887F883149F0883239F0803421F40895B5
:107990002F5F3F4FEACF80E00895FC0184EC611136
:1079A00001C084E88093BC0021E030E08091BC00FD
:1079B00087FD03C02115310539F48091B900232BCF
:1079C00031F4108280E00BC02F5F3F4FEFCF887FF4
:1079D0009091BB009083803511F0883599F7089518
:1079E000FF920F931F93CF93DF931F92CDB7DEB714
:1079F000182F062FF72E198292DF8823C1F1812FCD
:107A0000880FACDF21E030E0811102C030E020E0DF
:107A1000232B69F18F2DA2DF21E030E0811102C01C
:107A200030E020E0232B19F1802F98DF21E030E0B7
:107A3000811102C030E020E0232BC9F070DF21E08B
:107A400030E0811102C030E020E0232B81F0812F53
:107A5000880F816083DF21E030E0811102C030E0D7
:107A600020E0232B21F060E0CE01019696DF84E92F
:107A70008093BC0089810F90DF91CF911F910F916E
:107A8000FF900895FF920F931F93CF93DF931F9260
:107A9000CDB7DEB7182F062FF72E198240DF8823C7
:107AA00009F43BC0812F880F59DF21E030E08111BC
:107AB00002C030E020E0232B81F18F2D4FDF21E049
:107AC00030E0811102C030E020E0232B31F1802F23
:107AD00045DF21E030E0811102C030E020E0232BBF
:107AE000E1F01DDF21E030E0811102C030E020E054
:107AF000232B99F0812F880F816030DF21E030E067
:107B0000811102C030E020E0232B39F061E0CE018A
:107B1000019643DF91E0811101C090E0098110E0FE
:107B2000102F0027992321F060E0CE01019635DF68
:107B3000898194E99093BC009801282BC9010F908A
:107B4000DF91CF911F910F91FF9008950F931F9395
:107B5000CF93DF93082FD62F172FC42FE0DE882373
:107B6000A1F1802F880FFADE21E030E0811102C000
:107B700030E020E0232B49F1812FF0DE21E030E0DE
:107B8000811102C030E020E0232BF9F08D2FE6DEDA
:107B900021E030E0811102C030E020E0232BA9F089
:107BA0008C2FDCDE91E0811101C090E0892F94E9F7
:107BB0009093BC00EFE3FCE93197F1F700C00000BF
:107BC000DF91CF911F910F91089580E0F0CFFF9248
:107BD0000F931F93CF93DF93F82E162F072FEA01F1
:107BE0009EDE882309F43FC08F2D880FB7DE21E089
:107BF00030E0811102C030E020E0232BA1F1802F82
:107C0000ADDE21E030E0811102C030E020E0232B26
:107C100051F1812FA3DE21E030E0811102C030E07C
:107C200020E0232B01F18D2F99DE21E030E081113E
:107C300002C030E020E0232BB1F08C2F8FDE91E0EA
:107C4000811101C090E0892F94E99093BC00EFE38B
:107C5000FCE93197F1F700C00000DF91CF911F914F
:107C60000F91FF90089580E0EFCFCF93DF93CDB7D2
:107C7000DEB7C458D1090FB6F894DEBF0FBECDBF32
:107C800048DE219A299A809102016AE170E0A8DE1B
:107C9000282E309002012DB73EB7CF57DF4F3983E2
:107CA0002883C158D04080900301909004018091B6
:107CB000020160E270E0E6DE7C018DB79EB7945071
:107CC0000FB6F8949EBF0FBE8DBFEDB7FEB73196CD
:107CD0006F0140E050E0BA01DB01CA0128E0412C0D
:107CE000512C320180FD08C000E2402E03E8502EE6
:107CF00008EB602E0DEE702EB695A795979587959B
:107D000084259525A625B725215049F7B09581935F
:107D10009193A193B1934F5F5F4F6F4F7F4F411589
:107D200021E0520761057105B9F6412C512C320151
:107D300010E000E0C7010196CD57DF4F998388839B
:107D4000C358D040570191E0A91AB108CD57DF4F71
:107D500088819981C358D0400817190708F47CC05E
:107D60006091000170910101832D8CDEB0E0A0E0F4
:107D70007C01DD24CC2460910001709101016E5FD3
:107D80007F4F832D7FDEB0E0A0E08C299D29AE29B6
:107D9000BF29CF57DF4FE881F981C158D0400FB6D6
:107DA000F894FEBF0FBEEDBFF1E12F1252C0841553
:107DB0009505A605B70509F04CC0809102014FEF6B
:107DC0006AE170E0C3DE00E018E783E000581109C3
:107DD000F80180935700E89507B600FCFDCF011528
:107DE0001105A1F740900201609003017090040119
:107DF0008091020160E270E045DE4C01512C9E0151
:107E00002F5F3F4F7901852D90E06C01D694DC2CDB
:107E1000CC24D794C7940815190508F455C00196C9
:107E20009695982F882797958795B40172D0F7017A
:107E3000E81BF90BE058FF4F2FEFCF018E199F0978
:107E40008038910508F463C0B701C60130DDC60172
:107E500053DDF0E0E0E009950E151F0508F080CF36
:107E600080910201B401600F711F0CDE0A151B0521
:107E700009F48827E92FE42524E0E29FF00111248A
:107E8000EC0DFD1D452C562C672C7724408151812B
:107E90006281738144265526662677260E5F1F4F22
:107EA000842534E0839FF0011124EC0DFD1D452C49
:107EB000562C672C772480819181A281B38148263A
:107EC00059266A267B2642CF5801E894A7F8BB249E
:107ED0000115110549F0A114B10431F4B701C6012F
:107EE000E6DCC60109DD5394B301600F711F842DD8
:107EF000C9DDF701EA0DFB1D9083F8013196EF779C
:107F0000FF27EE0DFF1D80830E5F1F4F7CCF219357
:107F100094CFAA1BBB1B51E107C0AA1FBB1FA6170A
:107F2000B70710F0A61BB70B881F991F5A95A9F722
:0E7F300080959095BC01CD010895F894FFCF87
:087F3E001C005030003000006F
:040000030000780081
:00000001FF
