:1078000033C0000053C0000051C000004FC0000052
:107810004DC000004BC0000049C0000047C0000040
:1078200045C0000043C0000041C000003FC0000050
:107830003DC000003BC0000039C0000037C0000060
:1078400035C0000033C0000031C000002FC0000070
:107850002DC000002BC0000029C0000027C0000080
:1078600025C0000023C0000011241FBECFEFD8E0C8
:10787000DEBFCDBF84B78093080114BE0FB6F89465
:10788000A8958091600088618093600010926000EC
:107890000FBE11E0A0E0B1E0EEE3FFE702C005900B
:1078A0000D92A830B107D9F7E0D147C3A9CF23E0A3
:1078B000FC0120935700E89507B600FCFDCFDB01E3
:1078C00060E071E0AC014A1B5B0B8C91FA01EA0F9E
:1078D000FB1F11969C911197292F30E0322F222700
:1078E000280F311D090170935700E89511246E5F30
:1078F0001296603851F7089525E0FC012093570057
:10790000E89507B600FCFDCF81E180935700E8952C
:1079100008951092B9008CE58093B800089584EA28
:107920008093BC0021E030E08091BC0087FD03C063
:107930002115310551F48091B900232B49F0887F3E
:10794000883039F0803121F408952F5F3F4FECCF1C
:1079500080E0089584E98093BC0008958093BB0083
:1079600084E88093BC0021E030E08091BC0087FD7A
:1079700003C02115310561F48091B900232B59F022
:10798000887F883149F0883239F0803421F40895B5
:107990002F5F3F4FEACF80E00895FC0184EC611136
:1079A00001C084E88093BC0021E030E08091BC00FD
:1079B00087FD03C02115310539F48091B900232BCF
:1079C00031F4108280E00BC02F5F3F4FEFCF887FF4
:1079D0009091BB009083803511F0883599F7089518
:1079E000FF920F931F93CF93DF931F92CDB7DEB714
:1079F000182F062FF72E198292DF8823C1F1812FCD
:107A0000880FACDF21E030E0811102C030E020E0DF
:107A1000232B69F18F2DA2DF21E030E0811102C01C
:107A200030E020E0232B19F1802F98DF21E030E0B7
:107A3000811102C030E020E0232BC9F070DF21E08B
:107A400030E0811102C030E020E0232B81F0812F53
:107A5000880F816083DF21E030E0811102C030E0D7
:107A600020E0232B21F060E0CE01019696DF84E92F
:107A70008093BC0089810F90DF91CF911F910F916E
:107A8000FF900895FF920F931F93CF93DF931F9260
:107A9000CDB7DEB7182F062FF72E198240DF8823C7
:107AA00009F43BC0812F880F59DF21E030E08111BC
:107AB00002C030E020E0232B81F18F2D4FDF21E049
:107AC00030E0811102C030E020E0232B31F1802F23
:107AD00045DF21E030E0811102C030E020E0232BBF
:107AE000E1F01DDF21E030E0811102C030E020E054
:107AF000232B99F0812F880F816030DF21E030E067
:107B0000811102C030E020E0232B39F061E0CE018A
:107B1000019643DF91E0811101C090E0098110E0FE
:107B2000102F0027992321F060E0CE01019635DF68
:107B3000898194E99093BC009801282BC9010F908A
:107B4000DF91CF911F910F91FF9008950F931F9395
:107B5000CF93DF93082FD62F172FC42FE0DE882373
:107B6000A1F1802F880FFADE21E030E0811102C000
:107B700030E020E0232B49F1812FF0DE21E030E0DE
:107B8000811102C030E020E0232BF9F08D2FE6DEDA
:107B900021E030E0811102C030E020E0232BA9F089
:107BA0008C2FDCDE91E0811101C090E0892F94E9F7
:107BB0009093BC00EFE3FCE93197F1F700C00000BF
:107BC000DF91CF911F910F91089580E0F0CFFF9248
:107BD0000F931F93CF93DF93F82E162F072FEA01F1
:107BE0009EDE882309F43FC08F2D880FB7DE21E089
:107BF00030E0811102C030E020E0232BA1F1802F82
:107C0000ADDE21E030E0811102C030E020E0232B26
:107C100051F1812FA3DE21E030E0811102C030E07C
:107C200020E0232B01F18D2F99DE21E030E081113E
:107C300002C030E020E0232BB1F08C2F8FDE91E0EA
:107C4000811101C090E0892F94E99093BC00EFE38B
:107C5000FCE93197F1F700C00000DF91CF911F914F
:107C60000F91FF90089580E0EFCFCF93DF93CDB7D2
:107C7000DEB7C458D1090FB6F894DEBF0FBECDBF32
:107C800048DE219A299A809102016AE170E0A8DE1B
:107C9000282E309002012DB73EB7CF57DF4F3983E2
:107CA0002883C158D04080900301909004018091B6
:107CB000020160E270E0E6DE7C018DB79EB7945071
:107CC0000FB6F8949EBF0FBE8DBFEDB7FEB73196CD
:107CD0006F0140E050E0BA01DB01CA0128E0412C0D
:107CE000512C320180FD08C000E2402E03E8502EE6
:107CF00008EB602E0DEE702EB695A795979587959B
:107D000084259525A625B725215049F7B09581935F
:107D10009193A193B1934F5F5F4F6F4F7F4F411589
:107D200021E0520761057105B9F6412C512C320151
:107D300010E000E0C7010196CD57DF4F998388839B
:107D4000C358D040570191E0A91AB108CD57DF4F71
:107D500088819981C358D0400817190708F47CC05E
:107D60006091000170910101832D8CDEB0E0A0E0F4
:107D70007C01DD24CC2460910001709101016E5FD3
:107D80007F4F832D7FDEB0E0A0E08C299D29AE29B6
:107D9000BF29CF57DF4FE881F981C158D0400FB6D6
:107DA000F894FEBF0FBEEDBFF1E12F1252C0841553
:107DB0009505A605B70509F04CC0809102014FEF6B
:107DC0006AE170E0C3DE00E018E783E000581109C3
:107DD000F80180935700E89507B600FCFDCF011528
:107DE0001105A1F740900201609003017090040119
:107DF0008091020160E270E045DE4C01512C9E0151
:107E00002F5F3F4F7901852D90E06C01D694DC2CDB
:107E1000CC24D794C7940815190508F455C00196C9
:107E20009695982F882797958795B40172D0F7017A
:107E3000E81BF90BE058FF4F2FEFCF018E199F0978
:107E40008038910508F463C0B701C60130DDC60172
:107E500053DDF0E0E0E009950E151F0508F080CF36
:107E600080910201B401600F711F0CDE0A151B0521
:107E700009F48827E92FE42524E0E29FF00111248A
:107E8000EC0DFD1D452C562C672C7724408151812B
:107E90006281738144265526662677260E5F1F4F22
:107EA000842534E0839FF0011124EC0DFD1D452C49
:107EB000562C672C772480819181A281B38148263A
:107EC00059266A267B2642CF5801E894A7F8BB249E
:107ED0000115110549F0A114B10431F4B701C6012F
:107EE000E6DCC60109DD5394B301600F711F842DD8
:107EF000C9DDF701EA0DFB1D9083F8013196EF779C
:107F0000FF27EE0DFF1D80830E5F1F4F7CCF219357
:107F100094CFAA1BBB1B51E107C0AA1FBB1FA6170A
:107F2000B70710F0A61BB70B881F991F5A95A9F722
:0E7F300080959095BC01CD010895F894FFCF87
:087F3E001C005030003000006F
:040000030000780081
:00000001FF
